{
  "contractName": "MessageBoard",
  "abi": [
    {
      "inputs": [
        {
          "internalType": "uint256",
          "name": "",
          "type": "uint256"
        }
      ],
      "name": "messages",
      "outputs": [
        {
          "internalType": "address",
          "name": "author",
          "type": "address"
        },
        {
          "internalType": "string",
          "name": "content",
          "type": "string"
        }
      ],
      "stateMutability": "view",
      "type": "function",
      "constant": true
    },
    {
      "inputs": [
        {
          "internalType": "string",
          "name": "message",
          "type": "string"
        }
      ],
      "name": "writeMessage",
      "outputs": [],
      "stateMutability": "nonpayable",
      "type": "function"
    },
    {
      "inputs": [],
      "name": "getMessagesCount",
      "outputs": [
        {
          "internalType": "uint256",
          "name": "",
          "type": "uint256"
        }
      ],
      "stateMutability": "view",
      "type": "function",
      "constant": true
    }
  ],
  "bytecode": "0x608060405234801561001057600080fd5b50610823806100206000396000f3fe608060405234801561001057600080fd5b50600436106100415760003560e01c80630d80fefd146100465780633d0c46d014610077578063b588bfad14610095575b600080fd5b610060600480360381019061005b91906102d6565b6100b1565b60405161006e9291906103d4565b60405180910390f35b61007f61018d565b60405161008c9190610413565b60405180910390f35b6100af60048036038101906100aa9190610493565b610199565b005b600081815481106100c157600080fd5b90600052602060002090600202016000915090508060000160009054906101000a900473ffffffffffffffffffffffffffffffffffffffff169080600101805461010a9061050f565b80601f01602080910402602001604051908101604052809291908181526020018280546101369061050f565b80156101835780601f1061015857610100808354040283529160200191610183565b820191906000526020600020905b81548152906001019060200180831161016657829003601f168201915b5050505050905082565b60008080549050905090565b600060405180604001604052803373ffffffffffffffffffffffffffffffffffffffff16815260200184848080601f016020809104026020016040519081016040528093929190818152602001838380828437600081840152601f19601f82011690508083019250505050505050815250908060018154018082558091505060019003906000526020600020906002020160009091909190915060008201518160000160006101000a81548173ffffffffffffffffffffffffffffffffffffffff021916908373ffffffffffffffffffffffffffffffffffffffff160217905550602082015181600101908161028f919061071b565b5050505050565b600080fd5b600080fd5b6000819050919050565b6102b3816102a0565b81146102be57600080fd5b50565b6000813590506102d0816102aa565b92915050565b6000602082840312156102ec576102eb610296565b5b60006102fa848285016102c1565b91505092915050565b600073ffffffffffffffffffffffffffffffffffffffff82169050919050565b600061032e82610303565b9050919050565b61033e81610323565b82525050565b600081519050919050565b600082825260208201905092915050565b60005b8381101561037e578082015181840152602081019050610363565b60008484015250505050565b6000601f19601f8301169050919050565b60006103a682610344565b6103b0818561034f565b93506103c0818560208601610360565b6103c98161038a565b840191505092915050565b60006040820190506103e96000830185610335565b81810360208301526103fb818461039b565b90509392505050565b61040d816102a0565b82525050565b60006020820190506104286000830184610404565b92915050565b600080fd5b600080fd5b600080fd5b60008083601f8401126104535761045261042e565b5b8235905067ffffffffffffffff8111156104705761046f610433565b5b60208301915083600182028301111561048c5761048b610438565b5b9250929050565b600080602083850312156104aa576104a9610296565b5b600083013567ffffffffffffffff8111156104c8576104c761029b565b5b6104d48582860161043d565b92509250509250929050565b7f4e487b7100000000000000000000000000000000000000000000000000000000600052602260045260246000fd5b6000600282049050600182168061052757607f821691505b60208210810361053a576105396104e0565b5b50919050565b7f4e487b7100000000000000000000000000000000000000000000000000000000600052604160045260246000fd5b60008190508160005260206000209050919050565b60006020601f8301049050919050565b600082821b905092915050565b6000600883026105d17fffffffffffffffffffffffffffffffffffffffffffffffffffffffffffffffff82610594565b6105db8683610594565b95508019841693508086168417925050509392505050565b6000819050919050565b600061061861061361060e846102a0565b6105f3565b6102a0565b9050919050565b6000819050919050565b610632836105fd565b61064661063e8261061f565b8484546105a1565b825550505050565b600090565b61065b61064e565b610666818484610629565b505050565b5b8181101561068a5761067f600082610653565b60018101905061066c565b5050565b601f8211156106cf576106a08161056f565b6106a984610584565b810160208510156106b8578190505b6106cc6106c485610584565b83018261066b565b50505b505050565b600082821c905092915050565b60006106f2600019846008026106d4565b1980831691505092915050565b600061070b83836106e1565b9150826002028217905092915050565b61072482610344565b67ffffffffffffffff81111561073d5761073c610540565b5b610747825461050f565b61075282828561068e565b600060209050601f8311600181146107855760008415610773578287015190505b61077d85826106ff565b8655506107e5565b601f1984166107938661056f565b60005b828110156107bb57848901518255600182019150602085019450602081019050610796565b868310156107d857848901516107d4601f8916826106e1565b8355505b6001600288020188555050505b50505050505056fea2646970667358221220c7599ad0a85feec7da716e0a7fb3846d57e1ea7a9b546d3d10e211db5f6c04f264736f6c63430008130033",
  "immutableReferences": {},
  "source": "// SPDX-License-Identifier: MIT\npragma solidity >=0.4.22 <0.9.0;\n\ncontract MessageBoard {\n    struct Message {\n        address author;\n        string content;\n    }\n\n    Message[] public messages;\n\n    function writeMessage(string calldata message) public {\n        messages.push(Message(msg.sender, message));\n    }\n\n    function getMessagesCount() public view returns (uint256) {\n        return messages.length;\n    }\n}\n",
  "sourcePath": "/Users/samthomson/code/message-board/contracts/MessageBoard.sol",
  "compiler": {
    "name": "solc",
    "version": "0.8.19+commit.7dd6d404.Emscripten.clang"
  },
  "schemaVersion": "3.4.13",
  "updatedAt": "2023-07-21T09:25:00.469Z",
  "networkType": "ethereum",
  "devdoc": {
    "kind": "dev",
    "methods": {},
    "version": 1
  },
  "userdoc": {
    "kind": "user",
    "methods": {},
    "version": 1
  }
}